:20006000FFFFFFFFFFFFFFFFFFFFFFFFFFFFFFFFFFFFFFFFFFFFFFFFFFFFFFFF0C842602E4
:200080000C83B6FFFF7EE202FFFFFFFFFFFFFFFFFFFFFFFFFFFFFFFFFFFFFFFFFFFFFFFFD3
:20E000008D0327FC39B6FFD085012706B6FFD1847F394F398D263402810D270DB7FFD10C54
:20E020007996799178251220100F798D0F860DB7FFD18D08860AB7FFD13502393402B6FFA3
:20E04000D0850227F935023910CE01EE860CBDE0148EE157A6802705BDE01420F7B6FFD064
:20E06000850127F9B6FFD1847F8143271481572706966E8155260A9E6FA684811226026E03
:20E08000848E02186F83300126FA8E02176F809F19A60243A702A10226063001630120F1BA
:20E0A0009F719F279F233089FF389F211F148EE0F5CE0076C612BDE1F1CE00A7C604BDE1FA
:20E0C000F1863997F0BDE4FD8E00B59F8DCEEC11C60AEF815A26FB8695B7FFD08EE12ABD7F
:20E0E000F1258EE0ED9F6F8655976E200412BDE5177EE4653B1040FF00EC110C8426020CC0
:20E1000083B600007EE2027EE2017EE0F47EEC11804FC7525932E260E36D1DE300E211003E
:20E1200000000000000000000000003638303920455854454E4445442042415349430D28E0
:20E1400043292031393832204259204D4943524F534F46540D0D00434F4C44204F5220575A
:20E1600041524D2053544152542028432F57293F200D0034169E76DC789F6AD76C976D3534
:20E18000960F738E00F4C601BDE000810826075A27EF301F20348115260A5A27E48608BD42
:20E1A000E01420F681031A012705810D260D4F3401BDF0E56F848E00F33581812025C98179
:20E1C0007B24C5C1FA24C1A7805CBDE01420B92705BDEF049F7A6E9F007A7EE5E69673263A
:20E1E00003BDE0050F73975310260C6A97567EEE62A680A7C05A26F939399D8227FB7EEA86
:20E20000433B813A240A812026020E7C803080D039F403F477F41C00ADF6A8F6FDEF17EE67
:20E2200048ECC4EEDDEE67EE53F7ADF775F77EF8EFF921F843FAA9F87DFF7BEE72EE8FEE67
:20E2400096E1DDECB5FAB1FB71FB4179F14E79F1457BF2557BF31A7FF88650EA9C46EA9B27
:20E26000464FD247CF5245CDA7454C53C549C6444154C15052494ED44FCE494E5055D44545
:20E280004EC44E4558D44449CD524541C45255CE524553544F52C55245545552CE53544F48
:20E2A000D0504F4BC5434F4ED44C4953D4434C4541D24E45D7455845C354524FCE54524FC1
:20E2C00046C64445CC4445C64C494EC552454E55CD454449D4544142A854CF5355C2544891
:20E2E00045CE4E4FD4535445D04F46C6ABADAAAFDE414EC44FD2BEBDBC46CE5553494EC72F
:20E300005347CE494ED44142D35553D2524EC45349CE504545CB4C45CE535452A45641CC88
:20E320004153C3434852A44154CE434FD35441CE4558D04649D84C4FC7504FD35351D24874
:20E340004558A44C454654A45249474854A44D4944A4494E4B4559A44D45CD5641525054FD
:20E36000D2494E5354D2535452494E47A4E52BE676E6D3E6D3E6D3E704E6D0F0ADE732E76B
:20E38000DFE5FDE8C4EB15E819E66BE5DFE6B0E601EF1EE626EF25E637E4FBE1CFFAA4FA0C
:20E3A000A5FD20FC64FFBFFDAAF9304E46534E52474F4446434F564F4D554C425344442F95
:20E3C000304944544D4F534C535354434E4644414F444E494F464D4E4F4945445355464EE4
:20E3E00045204552524F520020494E20000D4F4B0D000D425245414B003064C6129F0FA671
:20E400008480802615AE019F119E3B27099C1127099E0F3A20E59E119F3B9E0F4D398D17AC
:20E42000DE4133419E433001A68236029C4726F8DF45394F58D31FC3003A250810DF1710A0
:20E44000931725EEC60CBDE517BDF0E9BDF1388EE3AB3A8D318D2F8EE3E0BDF12596684CBA
:20E460002703BDF54EBDF0E98EE3EDBDF125BDE181CEFFFFDF6825F69F839D7C27F0250BDC
:20E48000BDEFDA7EE5B4A6807EF13ABDE7579E2B9FF1BDEFDAD7038D4C2512DC47A384D32F
:20E4A0001BDD1BEE843702A7809C1B26F896F3271CDC1BDD43DB038900DD41BDE41ECE00AD
:20E4C000EF3702A7809C4526F89E419F1B8D368D02209B9E19EC8427213304A6C026FCEF2B
:20E4E00084AE8420F0DC2B9E19EE84270910A3022306AE8420F31A019F473926FB9E196F52
:20E50000806F809F1B9E19BDE6AB9E279F23BDE5DF9E1B9F1D9F1F8E00C99F0BAEE410DE11
:20E52000216FE20F2D0F2E0F086E8486809708BDE779BDE3F9326226049E0F3285C609BDDE
:20E54000E433BDE6D8DC683416C6A0BDEA3BBDE90FBDE90DD654CA7FD450D750108EE56347
:20E560007EE9B68EF24EBDF39D9D8281A426059D7CBDE90DBDF3F6BDE9B2DC3B34068680D3
:20E5800034021CAF8D609E839F2FA6802707813A27227EEA43A68197002772EC80DD689FF4
:20E5A00083968C270F865BBDE0149668BDF555865DBDE0149D7C8D0220C827294D102A01ED
:20E5C000B881FF270F819E22C9BEE118481F893A9D7C6E949D7C8197102714ED7EEA439E15
:20E5E00019301F9F3339BDE005270A8103271281132703977339BDE00527FB20EE9D822006
:20E60000021A0126319E839F2F060032629E688CFFFF27069F299E2F9F2D8EE3F10D001060
:20E620002AFE427EE45A260EC6209E2D1027FE169F839E299F6839272CBDEBAD34069E27B4
:20E640009D82270CBDEA39BDEF04301F9C7122181F10A3E125121F0383003A250B931B2576
:20E6600007DF219F277EE50A7EE4449D821027FE94BDE50A20191F899D7CC1A02716C1A12C
:20E680002645C603BDE433DE839E6886A134528D037EE5829D82BDE7578D403001DC2B10BA
:20E6A000936822029E19BDE4E92517301F9F833926FD86FF973BBDE3F91F148121270BC634
:20E6C000048CC60E7EE4467EEA4335529F68DF838D068C8D069F8339C63A865FD7015F9ECC
:20E6E000831F98D6019701A68427EC3404A1E027E63001812227EA4C26023001818626E7D0
:20E700000C0420E3BDE90D9D8281812705C6A2BDEA3B964F26130F048DB64D27BA9D7C8160
:20E720008426F50A042AF19D7C9D821025FF657EE5BABDEED2C681BDEA3B340281A12704FA
:20E7400081A026830A53260535047EE6789D7C8D06812C27EF35849E749F2B246180309782
:20E7600001DC2B811822DB58495849D32B5849DB018900DD2B9D7C20E2BDEB1E9F3BC6AE7E
:20E78000BDEA3B96063402BDE922350246BDE91410270C289E52DC2110A30224119C1B25A8
:20E7A0000DE684BDECD49E4DBDEE0A8E00569F4DBDEE3CDE4D9E3B3726A78410AF02393F49
:20E7C0005245444F0D007EE446960927079E319F687EEA438EE7BEBDF1259E2F9F8339C618
:20E7E000169E68300127DF8D01398122260BBDEA10C63BBDEA3BBDF1288E00F36F848D06B4
:20E80000C62CE7842016BDF138BDF135BDE181240532647EE609C62E399E33864F97099F3F
:20E8200035BDEB1E9F3B9E839F2B9E35A684260996092651BDF1388DCD9F839D7CD6062758
:20E84000239E8397018122270E301F4F9701BDE173863A9701862C9702BDECE5BDEA15BD13
:20E86000E7942006BDF49BBDF3BC9D822706812C1026FF529E839F359E2B9F839D82272178
:20E88000BDEA39209C9F83BDE6D830014D260AC606EE812741EC81DD31A684818626E62016
:20E8A000989E35D6091026FD3AA68427068EE8B37EF125393F45585452412049474E4F52F2
:20E8C00045440D0026049E742003BDEB1E9F3BBDE3F92704C60020471F143003BDF39DA659
:20E8E0006897549E3BBDF14BBDF3BC3069BDF41FE068270CAE6E9F68AEE8109F837EE582D3
:20E9000032E8129D82812C26F49D7C8DBD8D131CFE7D1A010D0625032A998C2B96C6187E89
:20E92000E4468D6E4F8C34043402C601BDE433BDE9EF0F3F9D8280AD25138103240F81012E
:20E9400049983F913F2564973F9D7C20E9D63F26331024006B8B0724679906102704778942
:20E96000FF340248ABE08EE24B30863502A18424558D9C34028D299E3D3502261D4D10275B
:20E98000006A204B0806598D098EE997D73F0F0620D99E837EE6AB64EABBA184243120D3CD
:20E9A000EC0134068D08D63F16FF7B7EEA43D654A68435203404D64F9E50DE5234546EA48D
:20E9C0009E74A6E0272681642703BDE90F9F3D3504815A2719817D271554D70A3552975C75
:20E9E0009F5DDF5F3504D761D854D762D64F39BDFC390F069D7C24037EF49BBDEB692450D0
:20EA0000812E27F481A7274081A627E38122260A9E83BDECDF9E649F833981A3260D865A5C
:20EA2000BDE926BDEBB443537EECBB4C272E8D06BDE922C6298CC6288CC62CE19F008326E7
:20EA4000020E7CC6027EE446867DBDE9267EF672BDEB1E9F52960626957EF39D9D7C1F8928
:20EA6000589D7CC13823037EEA433404C12A251EC130241C8DC0A6E4BDE9228DBCBDE91224
:20EA80003502DE523442BDEED2350234068E8D9E3504BEE11D3AAD947EE90F864F9703BDE0
:20EAA000EBB4DD01BDF3D3BDEBB40D0326069401D40220049A01DA027EECBBBDE9142610A3
:20EAC00096618A7F945D975D8E005CBDF41F20360F060A3FBDEE1ED7569F589E5FBDEE202E
:20EAE00096563404A0E0270786012403D656409754DE585C5A2604D654200BA680A1C02726
:20EB0000F3C6FF240150CB0159D40A2702C6FF7EF405BDEA39C6018D089D8226F5395F9DB5
:20EB200082D70597379D828D401025FF165FD7069D7C25048D33250A1F899D7C25FC8D296E
:20EB400024F8812426060306CB809D7CD7389A088028102700750F089E1BDC379C1D271281
:20EB600010A381273E300520F381412504805B80A5398E0074EEE41183EA532728DC1FDDC4
:20EB800043C30007DD419E1D9F47BDE41E9E419F1F9E459F1D9E47DC37ED814F5FED84ED3C
:20EBA00002A7049F393990800000009D7CBDE90D96542B5DBDE90F964F819025088EEBA652
:20EBC000BDF41F264CBDF451DC5239DC053406125F9E3734148DD435349F37DE5234605C21
:20EBE0009D82812C27EBD703BDEA333506DD059E1D9C1F2721DC3710A3842706EC02308B88
:20EC000020EFC6129605260BD603E1042759C6108CC6087EE446CC0005DD64DC37ED84D6BF
:20EC200003E704BDE4339F41C60B4F0D0527053506C30001ED058D5DDD6430020A0326E86B
:20EC40009F0FD30F1025F7FC1F01BDE437830035DD1F4F301FA7059C0F26F89E41961F9316
:20EC600041ED029605262DE604D7034F5FDD643506DD5210A305243ADE6427048D17D3520D
:20EC800030020A0326E7EDE358495849E3E1308B30059F393986109745EC05DD174F5F58F4
:20ECA00049250F086509642404D31725050A4526EE397EEC0E1F40931F214F0F06DD50C624
:20ECC000907EF40BBDE90FCE01F0BDF56532628E01EF200B9F4D8D5C9F58D75639301F8658
:20ECE000229701970230019F629F58C6FF5CA680270C91012704910226F381222702301F9A
:20ED00009F64D756DE62118301F022078DC69E62BDEE0C9E0B8C00F12605C61E7EE4469658
:20ED200056A700DC58ED0286FF97069F0D9F5230059F0B390F074F3406DC23A3E0109321F7
:20ED4000250ADD239E2330019F253584C61A030727CA8D04350420DE9E279F234F5FDD4B15
:20ED60009E219F478E00C99C0B27048D3220F89E1B9C1D27048D2220F89F419E419C1F27E9
:20ED800035EC02D341DD41A6012AF0E60458CB053A9C4127E88D0820F8A60130022A14E67B
:20EDA000842710EC02109323220910934723049F4BDD473005399E4B27FB4FE6845AD347F4
:20EDC000DD439E239F41BDE4209E4BDC45ED029E45301F7EED5ADC523406BDE9EFBDE9120C
:20EDE00035109F62E6849E52EB842405C61C7EE446BDECD49E62E6848D109E4D8D228D0C9A
:20EE00009E628D1CBDED137EE934AE02DE255C2004A680A7C05A26F9DF2539BDE9129E52D3
:20EE2000E6848D182613AE07301F9C2326083404D323DD233504300139AE02399C0D260709
:20EE40009F0B301B9F0D4F398D037EECBA8DCC0F065D39BDEED5C601BDED349653BDECD842
:20EE6000A78432627EED138D0220DF8DE0275EE684398D484FE1842303E6844F3406BDECE7
:20EE8000D69E4D8D9B35043A3504BDEE0C20D58D2BA0844020DFC6FFD7539D828129270532
:20EEA000BDEA398D2D8D1527245F4AA18424CD1F89E08450D15323C4D65320C0BDEA33EED4
:20EEC000E4AE659F4DA664E66432671F357EEC119D7CBDE90DBDEBB04D26F20E82BDEE4D82
:20EEE000102702DEDE839F833AA68434526F849D82BDF49B3552A784DF83398D079F2BBDC8
:20EF0000EA3920CEBDE90D96542BC2964F819022BCBDF4519E52398DEEE6847EECBA8DDBE6
:20EF20009E2BE784393401BDE757BDE4E59F66350127129D82271381A726099D7C2706BD87
:20EF4000E757270639CEFFFFDF2B32629E66BDF0E9BDE1DAEC8426037EE4659F66EC02102E
:20EF6000932B22F4BDF555BDF1359E668D10AE9F0066CE00F4A6C027D5BDF13A20F7300428
:20EF8000108E00F4A68027512B15813A260DE684C18427F0C18327EC8C86218D3020E5CE33
:20EFA000E10B81FF2604A6803345847F334A6DC427E7A0C42AF6ABC4EE414A2B066DC02A6A
:20EFC000FC20F7A6C48D066DC02AF820B7108C01ED2406847FA7A06FA4399E83CE00F30FC0
:20EFE000430F44A68027210D43270FBDEB69241881302504813923100F438120270A974276
:20F00000812227380D442719A7C02706813A27CF20D16FC06FC01F308300F18E00F29F8364
:20F0200039813F2604868720DF81272613CC3A83EDC10F42A68027D0914227CCA7C020F4DA
:20F0400081302504813C25C0301F34500F41CEE10B0F42334AA6C4273110AE41AEE4E6A0B0
:20F06000E08027FAC180263832623540DA4296412606C1842606863AEDC12094E7C0C186C7
:20F0800026020C44C18227AA2086CEE110034126C03550A680A7C0BDEB6925EC034320E8D3
:20F0A0000C424A27AE313FE6A02AFC20AF27368D0139273E819F2753812C2737813B276087
:20F0C000BDE922960634022606BDF562BDECDD8D573504BDE1735D26089D82812C27148D83
:20F0E000549D8226CF860D2051BDE17327F7966C26F339BDE173270AD66CD16B25068DE5C4
:20F10000201ED66CD06A24FC502010BDEED081291026F92FBDE173D06C23058D185A26FB7D
:20F120009D7C7EF0B2BDECDFBDEE1E5C5A27C3A6808D0720F786208C863F7EE0148EF6499E
:20F140002009BDF2B8035403622003BDF2B85D102702808E005C1F895D276CD04F2769256D
:20F160000A974F966197548E004F50C1F82F594F6401BDF243D6622A0B63016302630363AA
:20F180000443890097639653996097539652995F97529651995E97519650995D97505D2A00
:20F1A0004425028D5D5F9650262E965197509652975196539752966397530F63CB08C128E0
:20F1C0002DE44F974F9754398D6D5F20A85C086309530952095109502AF3964F3404A0E0B9
:20F1E000974F23DE8C2508086386009763200C0C4F2728065006510652065324048D0D2767
:20F20000EE39035403500351035203539E5230019F5226069E5030019F5039C60A7EE44621
:20F220008E0012A6049763A603A704A602A703A601A702965BA701CB082FE89663C0082729
:20F240000C6701660266036604465C26F43981000000008D6327608D78860097139714979B
:20F26000159716D6538D22D663D78BD6528D1AD663D78AD6518D12D663D789D6508D0CD6FC
:20F2800063D788BDF3947EF1A52795439613562726241696169B6097169615995F97159696
:20F2A00014995E97149613995D46971306140615061606634F20D539EC0197618A80DD5DA9
:20F2C000D661D854D762EC03DD5FA684975CD64F394D27169B4F464928108B80974F270C8D
:20F2E000966297543996544320023262102AFED27EF21BBDF3E8270D8B0225F40F62BDF1E9
:20F30000560C4F27EB398420000000BDF3E88EF3065FD762BDF39D8C8D9E2773004F8DB16B
:20F320000C4F27CC8E0013C604D703C6019650915D26139651915E260D9652915F260796C2
:20F340005391602601431FA859240AE7800A032B34272EC6011F8A250E0860095F095E09A6
:20F360005D25E32BC820DF966090539760965F9252975F965E9251975E965D9250975D20E2
:20F38000D8C64020D0565656D7638D087EF1A5C6147EE4469E139F509E159F52393402EC99
:20F3A0000197548A80DD500F63E684AE039F52D74F35828E004520068E00408C9E3B964FBE
:20F3C000A78496548A7F9450A7019651A702DE52EF0339966197549E5C9F4F0F63965E97D1
:20F3E0005196549E5F9F5239DC4FDD5C9E519F5E9E539F604D39D64F2708D65459C6FF2524
:20F400000150398DF1D7500F51C68896508080D74FDC74DD52976397547EF1A10F5439E60D
:20F420008427D3E601D8542BD1D64FE184261DE601CA7FD450E1012613D651E102260DD6F0
:20F4400052E1032607D653E00426013956D85420ABD64F273DC0A096542A05035BBDF2047C
:20F460008E004FC1F82E06BDF2370F5B390F5B96544906507EF243D64FC1A0241D8DD2D796
:20F48000639654D754808086A0974F965397017EF1A1D750D751D752D753399E749F549FD8
:20F4A0004F9F519F529F479F452564BDFBD8812D260403552004812B26049D7C2551812ED1
:20F4C0002728814526289D7C256481A7270E812D270A81A62708812B2704200603489D7C34
:20F4E000254C0D48270800472004034626CC96479045974727122A09BDF30B0C4726F92028
:20F5000007BDF2F30A4726F996552A8E7EF672D645D046D7453402BDF2F33504C0308D026C
:20F520002098BDF3B8BDF4058E00407EF14BD6475858DB475880303404ABE09747209F9B7B
:20F540003EBC1FFD9E6E6B27FD9E6E6B28008EE3E78D0CDC68DD50C69043BDF40F8D037E92
:20F56000F125CE01F18620D6542A02862DA7C0DF6497548630D64F102700C64FC1802208DF
:20F580008EF549BDF25386F797458EF544BDF4292E0F8EF53FBDF4292E0EBDF2F30A45207D
:20F5A000F1BDF30B0C4520E2BDF13DBDF451C60196458B0A2B09810B24054A1F8986024A7B
:20F5C0004A9747D7452E0DDE64862EA7C05D27048630A7C08EF64EC6809653AB039753967B
:20F5E00052A90297529651A90197519650A98497505C565928E32403C00B50CB2F30041F0D
:20F6000098847FA7C00A452604862EA7C053C4808CF67226C4A6C2813027FA812E2602339B
:20F620005F862BD647271C2A03862D50A7428645A741862F4CC00A24FBCB3AED436F45209B
:20F6400004A7C46F418E01F1398000000000FA0A1F0000989680FFF0BDC0000186A0FFFFF0
:20F66000D8F0000003E8FFFFFF9C0000000AFFFFFFFF964F27020354399F64BDF3B88D059D
:20F680008D088E00407EF2539F64BDF3B39E64E680D7559F648DEE9E6430059F64BDF14B99
:20F6A0008E00450A5526EE39BDF3F62B1F27158D10BDF3B88D0E8E00408DCA8EF24EBDF15E
:20F6C0004B7EF4779EB19F509EB39F52BEF6F99F5DBEF6FB9F5FBDF259DC8AC3658BDDB36F
:20F6E000DD52DC88C9B08905DDB1DD500F548680974F961597637EF1A540E64DABBDF3E8F7
:20F700008EF742D661BDF312BDF3E88DB40F62965CD64FBDF1458EF747BDF14296543402F9
:20F720002A09BDF13D96542B05030ABDF6728EF747BDF14B35024D2A03BDF6728EF74C7E75
:20F74000F67983490FDAA27F000000000584E61A2D1B862807FBF88799688901872335DF1B
:20F76000E186A55DE72883490FDAA2A154468F138F524389CD8EF7A8BDF14B7EF6FDBDF31C
:20F78000B80F0A8DF68E004ABDF3BE8E0040BDF39D0F54960A8D0C0D4F1027FA7E8E004A35
:20F7A0007EF31834027EF72B81490FDAA2965434022A028D24964F3402818125058EF24E83
:20F7C0008DDE8EF7DDBDF6793502818125068EF7A8BDF14235024D2A037EF672390B76B3AB
:20F7E00083BDD3791EF4A6F57B83FCB0107C0C1F67CA7CDE53CBC17D1464704C7DB7EA51E5
:20F800007A7D6330887E7E9244993A7E4CCC91C77FAAAAAA138100000000037F5E56CB79B8
:20F8200080139B0B6480763893168238AA3B20803504F334813504F3348080000000803123
:20F840007217F8BDF3F6102FF3C78EF82F964F808034028680974FBDF14B8EF834BDF31851
:20F860008EF24EBDF1428EF81ABDF6798EF839BDF14B3504BDF5228EF83E7EF253BDF3E81A
:20F880008EF649BDF39D27674D26037EF1C38E004ABDF3BE5F96612A10BDF4778E004A96AC
:20F8A00061BDF429260343D601BDF3D53404BDF8438E004ABDF2538D363502461025FDB217
:20F8C000398138AA3B29077134583E5674167EB31B772FEEE3857A1D841C2A7C6359580AC3
:20F8E0007E75FDE7C6803172181081000000008EF8C1BDF253BDF3B8964F818825037EF268
:20F90000E5BDF47796018B8127F44A34028E0040BDF1428EF8C6BDF6880F623502BDF2D12F
:20F9200039BDF3F62B037EF47703548DF97EF672BDFD5E326286019798BDE4E51025ED8282
:20F94000BDEF7E1F208300F5D797DC2BBDF555BDF1358E00F4D69826255FBDFA84BDFFB620
:20F96000250B80303402860A3DEBE020EDC001C90181412605BDF0E520BB814C260B8D312B
:20F980000F98BDF0E520C33262810D260D8D22BDF0E58E00F49F837EE48E814527F1815171
:20F9A0002606BDF0E57EE4658D0220AD812026108CC6F9A6842708BDE01430015A26F4395C
:20F9C000814426486D8427F78D045A26F7390A97311F3121A621A7A426F839814927138173
:20F9E00058270D8148265C6F841F108300F5D7978DBFBDFA84810D278E811B2725810826C7
:20FA0000228C00F427EC8D458DC420E6814326CB6D84270EBDFA84250220F5A7808D375A71
:20FA200026EE39D697C1F9260220C734106D8026FCE682E701ACE426F83262A7808D170C87
:20FA40009720AF810826128D045A26FB398C00F427D0301F86087EE014814B270580532782
:20FA6000013934028D1E3402A68427166D6126068DE430012003BDF9CEA684A1E426E95A73
:20FA800026E635A0BDE000817F24F9815F2602861B810D270E811B270A8108270681202516
:20FAA000E31A0139864F978C398600D6791D7EECBBBDEA36DC1F3406BDEB1EBDEA333506DA
:20FAC0001E109C1F26517EECBB9D7CBDEA36BDEB1E3410EC02109321230493272312E6846F
:20FAE000BDED343410AE62BDEE0A3550AF423440BDEEFF34045D271FC6FF81292703BDEE6C
:20FB0000FF3404BDEA33C6AEBDEA3B8D2E1F13AE62A684A06124037EEC114CA1E42402A716
:20FB2000E4A6611E89AE025A3A4D270DA1E42302A6E41F891E31BDE1F13596BDE9227EEEB5
:20FB40001BBDEA36BDEED23404BDEA39BDE922BDEA3396062605BDEED52003BDEE6B3404BE
:20FB6000E661BDECD635062705A7805A26FB7EEE62BDEA36BDE922C601340496062610BDB5
:20FB8000EED5E7E42791BDEA39BDE922BDE9129E523410BDEA39BDFB3B3414BDEA33AE6385
:20FBA000BDEE203404E1662523A661271CE6665A3A3184EE62E661A6E4A0664CA161250C2E
:20FBC000A680A1C0260C5A26F7E666215F32677EECBA6C66302120D98126265C32620F5232
:20FBE0000F538E00529D7C814F2712814827239D82200C81381022EE4AC6038D2A9D7C2562
:20FC0000F20F500F510F060F630F54C6A0D74F7EF1A59D7C250BBDEB6925E6814724E280F6
:20FC200007C6048D0220EB680169841025F5EC5A26F58030AB01A7013935400F069E839DF3
:20FC40007C8126279981B0275E81FF26089D7C8183102700AB9F836EC49E68300126D9C60E
:20FC6000167EE446AE9F00838CFF83102700748D238DE6BDEA36C680D708BDEB1E8D25BDE3
:20FC8000EA33C6AEBDEA3B9E4BDC83ED84DC39ED027EE6D0C6B0BDEA3BC680D7088A80BDBC
:20FCA000EB239F4B7EE90F8DEB3410BDEA2E8DF43540C632AE4227A9109E83EEC4DF83A6AC
:20FCC000043402EC84EE023476BDF3BEBDE90D3576ED84EF023502A7049D821026ED64101A
:20FCE0009F83399D7C8D0934108D2D3540AFC4395F9D7C240680301F899D7C9E8D583A39D2
:20FD00008DEEAE843410BDEA2E8E004F96062707BDEE1E9E52960639C6AEBDEA3B7EEF0421
:20FD20001027EEEDBDE757BDE4E59F939D82271081A7263B9D7C27048D24200486FF972BBF
:20FD4000DE938CEEC4ECC42706EC42932B23F49E938D15BDE5059E93BDE4D57EE465BDE788
:20FD6000577EE1FAA6C0A78011931B26F79F1B39BDFC599D7C8122260BBDEA10C63BBDEA19
:20FD80003BBDF128327EBDE80C3262BDEB1E9F3BBDE9128E00F34FBDECE37EE794BDE757B5
:20FDA0009E2B399E919F2B7EE4E5BDE50ACC000ADD95DD8F5FDD919D8224068DE09F959D4D
:20FDC00082271BBDEA3924068DD39F919D82270EBDEA3924068DC69F8F2749BDE1FA8DC38E
:20FDE0009F939E958DBF9C93253A8D1CBDFE7EBDE4D38DAF9F938D3A8D0F8D36BDFF19BD48
:20FE0000E50ABDE4D37EE465864F97989E93DC958D150D982602ED02AE848D0BD38F25045F
:20FE200081FA25EE7EEC113406EC84350626023262399E19301F30018DED30033001A684A0
:20FE400027F49F0F4A270C4A272A4A26EF8603A78020E7EC016A0227014FE6036A0427015C
:20FE60005FED01DD2BBDE4E59E0F25E1DC476C80ED8420C66F84AE01AE029F4720EA9E1995
:20FE800020049E8330018D9F300230019F839D7C4D27EF2AF99E8381FF27EF81A227128108
:20FEA00084270E818126E79D7C81A0270481A126DB9D7C25049D8220D79E833410BDE7573A
:20FEC0009E83A682BDFFB625F930011F10E061C0052720250A3384503085BDFD6820149FBC
:20FEE000479E1B9F435030859F419F1BBDE41E9E459F8335108601A784A702A704D62B264B
:20FF000004C6016C02E701D62C2604C6016C04E7039D82812C279A209C9E19301F3001EC07
:20FF200002DD68BDFE2730033001A68427EF4A271B800226F334108EFF76BDF125AEE4EC35
:20FF400001BDF555BDF54EBDF0E535103410EC01DD52BDFC01BDF5623540C6053001A684F9
:20FF600027055AA7C020F530C45D27BE31C433C5BDFD6830A420B3554C2000BDEF078E0190
:20FF8000F0C60434045F860408530952594A26F85D260AA6E44A27058C01F0270CCB30C116
:20FFA000392302CB07E7806F8435045A26D532628E01EF7EECDF81302504803A80C639813A
:20FFC000891027FDAB7EEA43FFFFFFFFFFFFFFFFFFFFFFFFFFFFFFFFFFFFFFFFFFFFFFFF26
:20FFE000FFFFFFFFFFFFFFFFFFFFFFFFFFFFFFFF0000009B009E00AA00A700A100A4E0481A
